{
  "contractName": "Contest",
  "abi": [
    {
      "inputs": [],
      "payable": false,
      "stateMutability": "nonpayable",
      "type": "constructor"
    },
    {
      "constant": true,
      "inputs": [
        {
          "internalType": "uint256",
          "name": "",
          "type": "uint256"
        }
      ],
      "name": "contestants",
      "outputs": [
        {
          "internalType": "uint256",
          "name": "id",
          "type": "uint256"
        },
        {
          "internalType": "string",
          "name": "name",
          "type": "string"
        },
        {
          "internalType": "uint256",
          "name": "voteCount",
          "type": "uint256"
        },
        {
          "internalType": "string",
          "name": "party",
          "type": "string"
        },
        {
          "internalType": "uint256",
          "name": "age",
          "type": "uint256"
        },
        {
          "internalType": "string",
          "name": "qualification",
          "type": "string"
        }
      ],
      "payable": false,
      "stateMutability": "view",
      "type": "function"
    },
    {
      "constant": true,
      "inputs": [],
      "name": "contestantsCount",
      "outputs": [
        {
          "internalType": "uint256",
          "name": "",
          "type": "uint256"
        }
      ],
      "payable": false,
      "stateMutability": "view",
      "type": "function"
    },
    {
      "constant": true,
      "inputs": [],
      "name": "state",
      "outputs": [
        {
          "internalType": "enum Contest.PHASE",
          "name": "",
          "type": "uint8"
        }
      ],
      "payable": false,
      "stateMutability": "view",
      "type": "function"
    },
    {
      "constant": true,
      "inputs": [
        {
          "internalType": "address",
          "name": "",
          "type": "address"
        }
      ],
      "name": "voters",
      "outputs": [
        {
          "internalType": "bool",
          "name": "hasVoted",
          "type": "bool"
        },
        {
          "internalType": "uint256",
          "name": "vote",
          "type": "uint256"
        },
        {
          "internalType": "bool",
          "name": "isRegistered",
          "type": "bool"
        }
      ],
      "payable": false,
      "stateMutability": "view",
      "type": "function"
    },
    {
      "constant": false,
      "inputs": [
        {
          "internalType": "enum Contest.PHASE",
          "name": "x",
          "type": "uint8"
        }
      ],
      "name": "changeState",
      "outputs": [],
      "payable": false,
      "stateMutability": "nonpayable",
      "type": "function"
    },
    {
      "constant": false,
      "inputs": [
        {
          "internalType": "string",
          "name": "_name",
          "type": "string"
        },
        {
          "internalType": "string",
          "name": "_party",
          "type": "string"
        },
        {
          "internalType": "uint256",
          "name": "_age",
          "type": "uint256"
        },
        {
          "internalType": "string",
          "name": "_qualification",
          "type": "string"
        }
      ],
      "name": "addContestant",
      "outputs": [],
      "payable": false,
      "stateMutability": "nonpayable",
      "type": "function"
    },
    {
      "constant": false,
      "inputs": [
        {
          "internalType": "address",
          "name": "user",
          "type": "address"
        }
      ],
      "name": "voterRegisteration",
      "outputs": [],
      "payable": false,
      "stateMutability": "nonpayable",
      "type": "function"
    },
    {
      "constant": false,
      "inputs": [
        {
          "internalType": "uint256",
          "name": "_contestantId",
          "type": "uint256"
        }
      ],
      "name": "vote",
      "outputs": [],
      "payable": false,
      "stateMutability": "nonpayable",
      "type": "function"
    }
  ],
  "bytecode": "0x608060405234801561001057600080fd5b50336000806101000a81548173ffffffffffffffffffffffffffffffffffffffff021916908373ffffffffffffffffffffffffffffffffffffffff1602179055506000600460006101000a81548160ff0219169083600281111561007057fe5b0217905550610d74806100846000396000f3fe608060405234801561001057600080fd5b50600436106100885760003560e01c8063c19d93fb1161005b578063c19d93fb1461019e578063dfd50f52146101ca578063ec63d1c81461035e578063ef3281861461037c57610088565b80630121b93f1461008d578063268f1153146100bb578063698ceb5f146100ec578063a3ec138d14610130575b600080fd5b6100b9600480360360208110156100a357600080fd5b810190808035906020019092919050505061056f565b005b6100ea600480360360208110156100d157600080fd5b81019080803560ff16906020019092919050505061073c565b005b61012e6004803603602081101561010257600080fd5b81019080803573ffffffffffffffffffffffffffffffffffffffff1690602001909291905050506107ec565b005b6101726004803603602081101561014657600080fd5b81019080803573ffffffffffffffffffffffffffffffffffffffff1690602001909291905050506108d7565b604051808415151515815260200183815260200182151515158152602001935050505060405180910390f35b6101a661091b565b604051808260028111156101b657fe5b60ff16815260200191505060405180910390f35b6101f6600480360360208110156101e057600080fd5b810190808035906020019092919050505061092e565b60405180878152602001806020018681526020018060200185815260200180602001848103845289818151815260200191508051906020019080838360005b83811015610250578082015181840152602081019050610235565b50505050905090810190601f16801561027d5780820380516001836020036101000a031916815260200191505b50848103835287818151815260200191508051906020019080838360005b838110156102b657808201518184015260208101905061029b565b50505050905090810190601f1680156102e35780820380516001836020036101000a031916815260200191505b50848103825285818151815260200191508051906020019080838360005b8381101561031c578082015181840152602081019050610301565b50505050905090810190601f1680156103495780820380516001836020036101000a031916815260200191505b50995050505050505050505060405180910390f35b610366610b32565b6040518082815260200191505060405180910390f35b61056d6004803603608081101561039257600080fd5b81019080803590602001906401000000008111156103af57600080fd5b8201836020820111156103c157600080fd5b803590602001918460018302840111640100000000831117156103e357600080fd5b91908080601f016020809104026020016040519081016040528093929190818152602001838380828437600081840152601f19601f8201169050808301925050505050505091929192908035906020019064010000000081111561044657600080fd5b82018360208201111561045857600080fd5b8035906020019184600183028401116401000000008311171561047a57600080fd5b91908080601f016020809104026020016040519081016040528093929190818152602001838380828437600081840152601f19601f82011690508083019250505050505050919291929080359060200190929190803590602001906401000000008111156104e757600080fd5b8201836020820111156104f957600080fd5b8035906020019184600183028401116401000000008311171561051b57600080fd5b91908080601f016020809104026020016040519081016040528093929190818152602001838380828437600081840152601f19601f820116905080830192505050505050509192919290505050610b38565b005b600180600281111561057d57fe5b600460009054906101000a900460ff16600281111561059857fe5b146105a257600080fd5b600260003373ffffffffffffffffffffffffffffffffffffffff1673ffffffffffffffffffffffffffffffffffffffff16815260200190815260200160002060020160009054906101000a900460ff166105fb57600080fd5b600260003373ffffffffffffffffffffffffffffffffffffffff1673ffffffffffffffffffffffffffffffffffffffff16815260200190815260200160002060000160009054906101000a900460ff161561065557600080fd5b60008211801561066757506003548211155b61067057600080fd5b60016000838152602001908152602001600020600201600081548092919060010191905055506001600260003373ffffffffffffffffffffffffffffffffffffffff1673ffffffffffffffffffffffffffffffffffffffff16815260200190815260200160002060000160006101000a81548160ff02191690831515021790555081600260003373ffffffffffffffffffffffffffffffffffffffff1673ffffffffffffffffffffffffffffffffffffffff168152602001908152602001600020600101819055505050565b6000809054906101000a900473ffffffffffffffffffffffffffffffffffffffff1673ffffffffffffffffffffffffffffffffffffffff163373ffffffffffffffffffffffffffffffffffffffff161461079557600080fd5b600460009054906101000a900460ff1660028111156107b057fe5b8160028111156107bc57fe5b116107c657600080fd5b80600460006101000a81548160ff021916908360028111156107e457fe5b021790555050565b6000809054906101000a900473ffffffffffffffffffffffffffffffffffffffff1673ffffffffffffffffffffffffffffffffffffffff163373ffffffffffffffffffffffffffffffffffffffff161461084557600080fd5b600080600281111561085357fe5b600460009054906101000a900460ff16600281111561086e57fe5b1461087857600080fd5b6001600260008473ffffffffffffffffffffffffffffffffffffffff1673ffffffffffffffffffffffffffffffffffffffff16815260200190815260200160002060020160006101000a81548160ff0219169083151502179055505050565b60026020528060005260406000206000915090508060000160009054906101000a900460ff16908060010154908060020160009054906101000a900460ff16905083565b600460009054906101000a900460ff1681565b6001602052806000526040600020600091509050806000015490806001018054600181600116156101000203166002900480601f0160208091040260200160405190810160405280929190818152602001828054600181600116156101000203166002900480156109e05780601f106109b5576101008083540402835291602001916109e0565b820191906000526020600020905b8154815290600101906020018083116109c357829003601f168201915b505050505090806002015490806003018054600181600116156101000203166002900480601f016020809104026020016040519081016040528092919081815260200182805460018160011615610100020316600290048015610a845780601f10610a5957610100808354040283529160200191610a84565b820191906000526020600020905b815481529060010190602001808311610a6757829003601f168201915b505050505090806004015490806005018054600181600116156101000203166002900480601f016020809104026020016040519081016040528092919081815260200182805460018160011615610100020316600290048015610b285780601f10610afd57610100808354040283529160200191610b28565b820191906000526020600020905b815481529060010190602001808311610b0b57829003601f168201915b5050505050905086565b60035481565b6000809054906101000a900473ffffffffffffffffffffffffffffffffffffffff1673ffffffffffffffffffffffffffffffffffffffff163373ffffffffffffffffffffffffffffffffffffffff1614610b9157600080fd5b6000806002811115610b9f57fe5b600460009054906101000a900460ff166002811115610bba57fe5b14610bc457600080fd5b6003600081548092919060010191905055506040518060c0016040528060035481526020018681526020016000815260200185815260200184815260200183815250600160006003548152602001908152602001600020600082015181600001556020820151816001019080519060200190610c41929190610c9a565b50604082015181600201556060820151816003019080519060200190610c68929190610c9a565b506080820151816004015560a0820151816005019080519060200190610c8f929190610c9a565b509050505050505050565b828054600181600116156101000203166002900490600052602060002090601f016020900481019282601f10610cdb57805160ff1916838001178555610d09565b82800160010185558215610d09579182015b82811115610d08578251825591602001919060010190610ced565b5b509050610d169190610d1a565b5090565b610d3c91905b80821115610d38576000816000905550600101610d20565b5090565b9056fea265627a7a7231582087dccda2aa629e6f48477d7ce726bb4a7225d78034aff193ad89a7476741d79a64736f6c63430005100032",
  "source": "pragma solidity 0.5.16;\n\ncontract Contest{\n\t\n\tstruct Contestant{\n\t\tuint id;\n\t\tstring name;\n\t\tuint voteCount;\n\t\tstring party;\n\t\tuint age;\n\t\tstring qualification;\n\t}\n\n\tstruct Voter{\n\t\tbool hasVoted;\n\t\tuint vote;\n\t\tbool isRegistered;\n\t}\n\n\taddress admin;\n\tmapping(uint => Contestant) public contestants; \n   // mapping(address => bool) public voters;\n    mapping(address => Voter) public voters;\n\tuint public contestantsCount;\n\t// uint public counter;\n\tenum PHASE{reg, voting , done}\n\tPHASE public state;\n\n\tmodifier onlyAdmin(){\n\t\trequire(msg.sender==admin);\n\t\t_;\n\t}\n\t\n\tmodifier validState(PHASE x){\n\t    require(state==x);\n\t    _;\n\t}\n\n\tconstructor() public{\n\t\tadmin=msg.sender;\n        state=PHASE.reg;\n\t\t// counter = 0;\n\n\t}\n\n    function changeState(PHASE x) onlyAdmin public{\n\t\trequire(x > state);\n        state = x;\n    }\n\n\tfunction addContestant(string memory _name , string memory _party , uint _age , string memory _qualification) public onlyAdmin validState(PHASE.reg){\n\t\tcontestantsCount++;\n\t\tcontestants[contestantsCount]=Contestant(contestantsCount,_name,0,_party,_age,_qualification);\n\t}\n\n\tfunction voterRegisteration(address user) public onlyAdmin validState(PHASE.reg){\n\t\tvoters[user].isRegistered=true;\n\t}\n\n\tfunction vote(uint _contestantId) public validState(PHASE.voting){\n        \n\t\trequire(voters[msg.sender].isRegistered);\n\t\trequire(!voters[msg.sender].hasVoted);\n        require(_contestantId > 0 && _contestantId<=contestantsCount);\n\t\tcontestants[_contestantId].voteCount++;\n\t\tvoters[msg.sender].hasVoted=true;\n\t\tvoters[msg.sender].vote=_contestantId;\n\t}\n}",
  "sourcePath": "/home/thaufi/Desktop/proj/DOVS/contracts/Contest.sol",
  "compiler": {
    "name": "solc",
    "version": "0.5.16+commit.9c3226ce.Emscripten.clang"
  },
  "schemaVersion": "3.4.16",
  "updatedAt": "2024-04-25T06:43:28.038Z",
  "networkType": "ethereum",
  "devdoc": {
    "methods": {}
  },
  "userdoc": {
    "methods": {}
  }
}