{
  "contractName": "Voting",
  "abi": [
    {
      "inputs": [],
      "stateMutability": "nonpayable",
      "type": "constructor"
    },
    {
      "inputs": [
        {
          "internalType": "uint256",
          "name": "",
          "type": "uint256"
        }
      ],
      "name": "contestants",
      "outputs": [
        {
          "internalType": "uint256",
          "name": "id",
          "type": "uint256"
        },
        {
          "internalType": "string",
          "name": "name",
          "type": "string"
        },
        {
          "internalType": "uint256",
          "name": "voteCount",
          "type": "uint256"
        },
        {
          "internalType": "string",
          "name": "party",
          "type": "string"
        },
        {
          "internalType": "uint256",
          "name": "age",
          "type": "uint256"
        },
        {
          "internalType": "string",
          "name": "qualification",
          "type": "string"
        }
      ],
      "stateMutability": "view",
      "type": "function",
      "constant": true
    },
    {
      "inputs": [],
      "name": "contestantsCount",
      "outputs": [
        {
          "internalType": "uint256",
          "name": "",
          "type": "uint256"
        }
      ],
      "stateMutability": "view",
      "type": "function",
      "constant": true
    },
    {
      "inputs": [],
      "name": "state",
      "outputs": [
        {
          "internalType": "enum Voting.PHASE",
          "name": "",
          "type": "uint8"
        }
      ],
      "stateMutability": "view",
      "type": "function",
      "constant": true
    },
    {
      "inputs": [
        {
          "internalType": "address",
          "name": "",
          "type": "address"
        }
      ],
      "name": "voters",
      "outputs": [
        {
          "internalType": "bool",
          "name": "hasVoted",
          "type": "bool"
        },
        {
          "internalType": "uint256",
          "name": "vote",
          "type": "uint256"
        },
        {
          "internalType": "bool",
          "name": "isRegistered",
          "type": "bool"
        }
      ],
      "stateMutability": "view",
      "type": "function",
      "constant": true
    },
    {
      "inputs": [
        {
          "internalType": "enum Voting.PHASE",
          "name": "x",
          "type": "uint8"
        }
      ],
      "name": "changeState",
      "outputs": [],
      "stateMutability": "nonpayable",
      "type": "function"
    },
    {
      "inputs": [
        {
          "internalType": "string",
          "name": "_name",
          "type": "string"
        },
        {
          "internalType": "string",
          "name": "_party",
          "type": "string"
        },
        {
          "internalType": "uint256",
          "name": "_age",
          "type": "uint256"
        },
        {
          "internalType": "string",
          "name": "_qualification",
          "type": "string"
        }
      ],
      "name": "addContestant",
      "outputs": [],
      "stateMutability": "nonpayable",
      "type": "function"
    },
    {
      "inputs": [
        {
          "internalType": "address",
          "name": "user",
          "type": "address"
        }
      ],
      "name": "voterRegisteration",
      "outputs": [],
      "stateMutability": "nonpayable",
      "type": "function"
    },
    {
      "inputs": [
        {
          "internalType": "uint256",
          "name": "_contestantId",
          "type": "uint256"
        }
      ],
      "name": "vote",
      "outputs": [],
      "stateMutability": "nonpayable",
      "type": "function"
    }
  ],
  "bytecode": "0x608060405234801561001057600080fd5b50336000806101000a81548173ffffffffffffffffffffffffffffffffffffffff021916908373ffffffffffffffffffffffffffffffffffffffff1602179055506000600460006101000a81548160ff0219169083600281111561007757610076610081565b5b02179055506100b0565b7f4e487b7100000000000000000000000000000000000000000000000000000000600052602160045260246000fd5b6111b1806100bf6000396000f3fe608060405234801561001057600080fd5b50600436106100885760003560e01c8063c19d93fb1161005b578063c19d93fb14610113578063dfd50f5214610131578063ec63d1c814610166578063ef3281861461018457610088565b80630121b93f1461008d578063268f1153146100a9578063698ceb5f146100c5578063a3ec138d146100e1575b600080fd5b6100a760048036038101906100a29190610918565b6101a0565b005b6100c360048036038101906100be919061096a565b610381565b005b6100df60048036038101906100da91906109f5565b610445565b005b6100fb60048036038101906100f691906109f5565b61053d565b60405161010a93929190610a4c565b60405180910390f35b61011b610581565b6040516101289190610afa565b60405180910390f35b61014b60048036038101906101469190610918565b610594565b60405161015d96959493929190610ba5565b60405180910390f35b61016e610768565b60405161017b9190610c1b565b60405180910390f35b61019e60048036038101906101999190610d6b565b61076e565b005b60018060028111156101b5576101b4610a83565b5b600460009054906101000a900460ff1660028111156101d7576101d6610a83565b5b146101e157600080fd5b600260003373ffffffffffffffffffffffffffffffffffffffff1673ffffffffffffffffffffffffffffffffffffffff16815260200190815260200160002060020160009054906101000a900460ff1661023a57600080fd5b600260003373ffffffffffffffffffffffffffffffffffffffff1673ffffffffffffffffffffffffffffffffffffffff16815260200190815260200160002060000160009054906101000a900460ff161561029457600080fd5b6000821180156102a657506003548211155b6102af57600080fd5b6001600083815260200190815260200160002060020160008154809291906102d690610e55565b91905055506001600260003373ffffffffffffffffffffffffffffffffffffffff1673ffffffffffffffffffffffffffffffffffffffff16815260200190815260200160002060000160006101000a81548160ff02191690831515021790555081600260003373ffffffffffffffffffffffffffffffffffffffff1673ffffffffffffffffffffffffffffffffffffffff168152602001908152602001600020600101819055505050565b60008054906101000a900473ffffffffffffffffffffffffffffffffffffffff1673ffffffffffffffffffffffffffffffffffffffff163373ffffffffffffffffffffffffffffffffffffffff16146103d957600080fd5b600460009054906101000a900460ff1660028111156103fb576103fa610a83565b5b81600281111561040e5761040d610a83565b5b1161041857600080fd5b80600460006101000a81548160ff0219169083600281111561043d5761043c610a83565b5b021790555050565b60008054906101000a900473ffffffffffffffffffffffffffffffffffffffff1673ffffffffffffffffffffffffffffffffffffffff163373ffffffffffffffffffffffffffffffffffffffff161461049d57600080fd5b60008060028111156104b2576104b1610a83565b5b600460009054906101000a900460ff1660028111156104d4576104d3610a83565b5b146104de57600080fd5b6001600260008473ffffffffffffffffffffffffffffffffffffffff1673ffffffffffffffffffffffffffffffffffffffff16815260200190815260200160002060020160006101000a81548160ff0219169083151502179055505050565b60026020528060005260406000206000915090508060000160009054906101000a900460ff16908060010154908060020160009054906101000a900460ff16905083565b600460009054906101000a900460ff1681565b60016020528060005260406000206000915090508060000154908060010180546105bd90610ecc565b80601f01602080910402602001604051908101604052809291908181526020018280546105e990610ecc565b80156106365780601f1061060b57610100808354040283529160200191610636565b820191906000526020600020905b81548152906001019060200180831161061957829003601f168201915b50505050509080600201549080600301805461065190610ecc565b80601f016020809104026020016040519081016040528092919081815260200182805461067d90610ecc565b80156106ca5780601f1061069f576101008083540402835291602001916106ca565b820191906000526020600020905b8154815290600101906020018083116106ad57829003601f168201915b5050505050908060040154908060050180546106e590610ecc565b80601f016020809104026020016040519081016040528092919081815260200182805461071190610ecc565b801561075e5780601f106107335761010080835404028352916020019161075e565b820191906000526020600020905b81548152906001019060200180831161074157829003601f168201915b5050505050905086565b60035481565b60008054906101000a900473ffffffffffffffffffffffffffffffffffffffff1673ffffffffffffffffffffffffffffffffffffffff163373ffffffffffffffffffffffffffffffffffffffff16146107c657600080fd5b60008060028111156107db576107da610a83565b5b600460009054906101000a900460ff1660028111156107fd576107fc610a83565b5b1461080757600080fd5b6003600081548092919061081a90610e55565b91905055506040518060c001604052806003548152602001868152602001600081526020018581526020018481526020018381525060016000600354815260200190815260200160002060008201518160000155602082015181600101908161088391906110a9565b506040820151816002015560608201518160030190816108a391906110a9565b506080820151816004015560a08201518160050190816108c391906110a9565b509050505050505050565b6000604051905090565b600080fd5b600080fd5b6000819050919050565b6108f5816108e2565b811461090057600080fd5b50565b600081359050610912816108ec565b92915050565b60006020828403121561092e5761092d6108d8565b5b600061093c84828501610903565b91505092915050565b6003811061095257600080fd5b50565b60008135905061096481610945565b92915050565b6000602082840312156109805761097f6108d8565b5b600061098e84828501610955565b91505092915050565b600073ffffffffffffffffffffffffffffffffffffffff82169050919050565b60006109c282610997565b9050919050565b6109d2816109b7565b81146109dd57600080fd5b50565b6000813590506109ef816109c9565b92915050565b600060208284031215610a0b57610a0a6108d8565b5b6000610a19848285016109e0565b91505092915050565b60008115159050919050565b610a3781610a22565b82525050565b610a46816108e2565b82525050565b6000606082019050610a616000830186610a2e565b610a6e6020830185610a3d565b610a7b6040830184610a2e565b949350505050565b7f4e487b7100000000000000000000000000000000000000000000000000000000600052602160045260246000fd5b60038110610ac357610ac2610a83565b5b50565b6000819050610ad482610ab2565b919050565b6000610ae482610ac6565b9050919050565b610af481610ad9565b82525050565b6000602082019050610b0f6000830184610aeb565b92915050565b600081519050919050565b600082825260208201905092915050565b60005b83811015610b4f578082015181840152602081019050610b34565b60008484015250505050565b6000601f19601f8301169050919050565b6000610b7782610b15565b610b818185610b20565b9350610b91818560208601610b31565b610b9a81610b5b565b840191505092915050565b600060c082019050610bba6000830189610a3d565b8181036020830152610bcc8188610b6c565b9050610bdb6040830187610a3d565b8181036060830152610bed8186610b6c565b9050610bfc6080830185610a3d565b81810360a0830152610c0e8184610b6c565b9050979650505050505050565b6000602082019050610c306000830184610a3d565b92915050565b600080fd5b600080fd5b7f4e487b7100000000000000000000000000000000000000000000000000000000600052604160045260246000fd5b610c7882610b5b565b810181811067ffffffffffffffff82111715610c9757610c96610c40565b5b80604052505050565b6000610caa6108ce565b9050610cb68282610c6f565b919050565b600067ffffffffffffffff821115610cd657610cd5610c40565b5b610cdf82610b5b565b9050602081019050919050565b82818337600083830152505050565b6000610d0e610d0984610cbb565b610ca0565b905082815260208101848484011115610d2a57610d29610c3b565b5b610d35848285610cec565b509392505050565b600082601f830112610d5257610d51610c36565b5b8135610d62848260208601610cfb565b91505092915050565b60008060008060808587031215610d8557610d846108d8565b5b600085013567ffffffffffffffff811115610da357610da26108dd565b5b610daf87828801610d3d565b945050602085013567ffffffffffffffff811115610dd057610dcf6108dd565b5b610ddc87828801610d3d565b9350506040610ded87828801610903565b925050606085013567ffffffffffffffff811115610e0e57610e0d6108dd565b5b610e1a87828801610d3d565b91505092959194509250565b7f4e487b7100000000000000000000000000000000000000000000000000000000600052601160045260246000fd5b6000610e60826108e2565b91507fffffffffffffffffffffffffffffffffffffffffffffffffffffffffffffffff8203610e9257610e91610e26565b5b600182019050919050565b7f4e487b7100000000000000000000000000000000000000000000000000000000600052602260045260246000fd5b60006002820490506001821680610ee457607f821691505b602082108103610ef757610ef6610e9d565b5b50919050565b60008190508160005260206000209050919050565b60006020601f8301049050919050565b600082821b905092915050565b600060088302610f5f7fffffffffffffffffffffffffffffffffffffffffffffffffffffffffffffffff82610f22565b610f698683610f22565b95508019841693508086168417925050509392505050565b6000819050919050565b6000610fa6610fa1610f9c846108e2565b610f81565b6108e2565b9050919050565b6000819050919050565b610fc083610f8b565b610fd4610fcc82610fad565b848454610f2f565b825550505050565b600090565b610fe9610fdc565b610ff4818484610fb7565b505050565b5b818110156110185761100d600082610fe1565b600181019050610ffa565b5050565b601f82111561105d5761102e81610efd565b61103784610f12565b81016020851015611046578190505b61105a61105285610f12565b830182610ff9565b50505b505050565b600082821c905092915050565b600061108060001984600802611062565b1980831691505092915050565b6000611099838361106f565b9150826002028217905092915050565b6110b282610b15565b67ffffffffffffffff8111156110cb576110ca610c40565b5b6110d58254610ecc565b6110e082828561101c565b600060209050601f8311600181146111135760008415611101578287015190505b61110b858261108d565b865550611173565b601f19841661112186610efd565b60005b8281101561114957848901518255600182019150602085019450602081019050611124565b868310156111665784890151611162601f89168261106f565b8355505b6001600288020188555050505b50505050505056fea26469706673582212201ba5e317f0a349c7912fb403934c9a0df20f1683216a6437bbcebbdae2af2c1064736f6c63430008130033",
  "immutableReferences": {},
  "source": "// SPDX-License-Identifier: MIT\npragma solidity >=0.5.0 <0.9.0;\n\ncontract Voting {\n    struct Contestant {\n        uint id;\n        string name;\n        uint voteCount;\n        string party;\n        uint age;\n        string qualification;\n    }\n\n    struct Voter {\n        bool hasVoted;\n        uint vote;\n        bool isRegistered;\n    }\n\n    address admin;\n    mapping(uint => Contestant) public contestants;\n    // mapping(address => bool) public voters;\n    mapping(address => Voter) public voters;\n    uint public contestantsCount;\n    // uint public counter;\n    enum PHASE {\n        reg,\n        voting,\n        done\n    }\n    PHASE public state;\n\n    modifier onlyAdmin() {\n        require(msg.sender == admin);\n        _;\n    }\n\n    modifier validState(PHASE x) {\n        require(state == x);\n        _;\n    }\n\n    constructor() {\n        admin = msg.sender;\n        state = PHASE.reg;\n        // counter = 0;\n    }\n\n    function changeState(PHASE x) public onlyAdmin {\n        require(x > state);\n        state = x;\n    }\n\n    function addContestant(\n        string memory _name,\n        string memory _party,\n        uint _age,\n        string memory _qualification\n    ) public onlyAdmin validState(PHASE.reg) {\n        contestantsCount++;\n        contestants[contestantsCount] = Contestant(\n            contestantsCount,\n            _name,\n            0,\n            _party,\n            _age,\n            _qualification\n        );\n    }\n\n    function voterRegisteration(\n        address user\n    ) public onlyAdmin validState(PHASE.reg) {\n        voters[user].isRegistered = true;\n    }\n\n    function vote(uint _contestantId) public validState(PHASE.voting) {\n        require(voters[msg.sender].isRegistered);\n        require(!voters[msg.sender].hasVoted);\n        require(_contestantId > 0 && _contestantId <= contestantsCount);\n        contestants[_contestantId].voteCount++;\n        voters[msg.sender].hasVoted = true;\n        voters[msg.sender].vote = _contestantId;\n    }\n}\n",
  "sourcePath": "/home/thaufi/Desktop/Project/truffle/contracts/Voting.sol",
  "compiler": {
    "name": "solc",
    "version": "0.8.19+commit.7dd6d404.Emscripten.clang"
  },
  "schemaVersion": "3.4.16",
  "updatedAt": "2024-03-18T20:40:22.258Z",
  "networkType": "ethereum",
  "devdoc": {
    "kind": "dev",
    "methods": {},
    "version": 1
  },
  "userdoc": {
    "kind": "user",
    "methods": {},
    "version": 1
  }
}