{
  "contractName": "Voting",
  "abi": [
    {
      "inputs": [],
      "stateMutability": "nonpayable",
      "type": "constructor"
    },
    {
      "inputs": [
        {
          "internalType": "uint256",
          "name": "",
          "type": "uint256"
        }
      ],
      "name": "contestants",
      "outputs": [
        {
          "internalType": "uint256",
          "name": "id",
          "type": "uint256"
        },
        {
          "internalType": "string",
          "name": "name",
          "type": "string"
        },
        {
          "internalType": "uint256",
          "name": "voteCount",
          "type": "uint256"
        },
        {
          "internalType": "string",
          "name": "party",
          "type": "string"
        },
        {
          "internalType": "uint256",
          "name": "age",
          "type": "uint256"
        },
        {
          "internalType": "string",
          "name": "qualification",
          "type": "string"
        }
      ],
      "stateMutability": "view",
      "type": "function",
      "constant": true
    },
    {
      "inputs": [],
      "name": "contestantsCount",
      "outputs": [
        {
          "internalType": "uint256",
          "name": "",
          "type": "uint256"
        }
      ],
      "stateMutability": "view",
      "type": "function",
      "constant": true
    },
    {
      "inputs": [],
      "name": "state",
      "outputs": [
        {
          "internalType": "enum Voting.PHASE",
          "name": "",
          "type": "uint8"
        }
      ],
      "stateMutability": "view",
      "type": "function",
      "constant": true
    },
    {
      "inputs": [
        {
          "internalType": "address",
          "name": "",
          "type": "address"
        }
      ],
      "name": "voters",
      "outputs": [
        {
          "internalType": "bool",
          "name": "hasVoted",
          "type": "bool"
        },
        {
          "internalType": "bool",
          "name": "isRegistered",
          "type": "bool"
        }
      ],
      "stateMutability": "view",
      "type": "function",
      "constant": true
    },
    {
      "inputs": [
        {
          "internalType": "enum Voting.PHASE",
          "name": "x",
          "type": "uint8"
        }
      ],
      "name": "changeState",
      "outputs": [],
      "stateMutability": "nonpayable",
      "type": "function"
    },
    {
      "inputs": [
        {
          "internalType": "string",
          "name": "_name",
          "type": "string"
        },
        {
          "internalType": "string",
          "name": "_party",
          "type": "string"
        },
        {
          "internalType": "uint256",
          "name": "_age",
          "type": "uint256"
        },
        {
          "internalType": "string",
          "name": "_qualification",
          "type": "string"
        }
      ],
      "name": "addContestant",
      "outputs": [],
      "stateMutability": "nonpayable",
      "type": "function"
    },
    {
      "inputs": [
        {
          "internalType": "address",
          "name": "user",
          "type": "address"
        }
      ],
      "name": "voterRegisteration",
      "outputs": [],
      "stateMutability": "nonpayable",
      "type": "function"
    },
    {
      "inputs": [
        {
          "internalType": "uint256",
          "name": "_contestantId",
          "type": "uint256"
        }
      ],
      "name": "vote",
      "outputs": [],
      "stateMutability": "nonpayable",
      "type": "function"
    },
    {
      "inputs": [],
      "name": "winner",
      "outputs": [
        {
          "internalType": "uint256",
          "name": "",
          "type": "uint256"
        }
      ],
      "stateMutability": "view",
      "type": "function",
      "constant": true
    },
    {
      "inputs": [],
      "name": "getVoteCounts",
      "outputs": [
        {
          "internalType": "uint256[]",
          "name": "",
          "type": "uint256[]"
        }
      ],
      "stateMutability": "view",
      "type": "function",
      "constant": true
    }
  ],
  "bytecode": "0x608060405234801561001057600080fd5b50336000806101000a81548173ffffffffffffffffffffffffffffffffffffffff021916908373ffffffffffffffffffffffffffffffffffffffff1602179055506000600460006101000a81548160ff0219169083600281111561007757610076610081565b5b02179055506100b0565b7f4e487b7100000000000000000000000000000000000000000000000000000000600052602160045260246000fd5b6114d8806100bf6000396000f3fe608060405234801561001057600080fd5b506004361061009e5760003560e01c8063dfbf53ae11610066578063dfbf53ae14610146578063dfd50f5214610164578063ec63d1c814610199578063ef328186146101b7578063ffc97b20146101d35761009e565b80630121b93f146100a3578063268f1153146100bf578063698ceb5f146100db578063a3ec138d146100f7578063c19d93fb14610128575b600080fd5b6100bd60048036038101906100b89190610b0a565b6101f1565b005b6100d960048036038101906100d49190610b5c565b61038b565b005b6100f560048036038101906100f09190610be7565b61044f565b005b610111600480360381019061010c9190610be7565b610547565b60405161011f929190610c2f565b60405180910390f35b610130610585565b60405161013d9190610ccf565b60405180910390f35b61014e610598565b60405161015b9190610cf9565b60405180910390f35b61017e60048036038101906101799190610b0a565b610686565b60405161019096959493929190610da4565b60405180910390f35b6101a161085a565b6040516101ae9190610cf9565b60405180910390f35b6101d160048036038101906101cc9190610f4f565b610860565b005b6101db6109c0565b6040516101e891906110c8565b60405180910390f35b600180600281111561020657610205610c58565b5b600460009054906101000a900460ff16600281111561022857610227610c58565b5b1461023257600080fd5b600260003373ffffffffffffffffffffffffffffffffffffffff1673ffffffffffffffffffffffffffffffffffffffff16815260200190815260200160002060000160019054906101000a900460ff1661028b57600080fd5b600260003373ffffffffffffffffffffffffffffffffffffffff1673ffffffffffffffffffffffffffffffffffffffff16815260200190815260200160002060000160009054906101000a900460ff16156102e557600080fd5b6000821180156102f757506003548211155b61030057600080fd5b60016000838152602001908152602001600020600201600081548092919061032790611119565b91905055506001600260003373ffffffffffffffffffffffffffffffffffffffff1673ffffffffffffffffffffffffffffffffffffffff16815260200190815260200160002060000160006101000a81548160ff0219169083151502179055505050565b60008054906101000a900473ffffffffffffffffffffffffffffffffffffffff1673ffffffffffffffffffffffffffffffffffffffff163373ffffffffffffffffffffffffffffffffffffffff16146103e357600080fd5b600460009054906101000a900460ff16600281111561040557610404610c58565b5b81600281111561041857610417610c58565b5b1161042257600080fd5b80600460006101000a81548160ff0219169083600281111561044757610446610c58565b5b021790555050565b60008054906101000a900473ffffffffffffffffffffffffffffffffffffffff1673ffffffffffffffffffffffffffffffffffffffff163373ffffffffffffffffffffffffffffffffffffffff16146104a757600080fd5b60008060028111156104bc576104bb610c58565b5b600460009054906101000a900460ff1660028111156104de576104dd610c58565b5b146104e857600080fd5b6001600260008473ffffffffffffffffffffffffffffffffffffffff1673ffffffffffffffffffffffffffffffffffffffff16815260200190815260200160002060000160016101000a81548160ff0219169083151502179055505050565b60026020528060005260406000206000915090508060000160009054906101000a900460ff16908060000160019054906101000a900460ff16905082565b600460009054906101000a900460ff1681565b600060028060028111156105af576105ae610c58565b5b600460009054906101000a900460ff1660028111156105d1576105d0610c58565b5b146105db57600080fd5b600080600080600190505b6003548111610668578360016000838152602001908152602001600020600201541115610632576001600082815260200190815260200160002060020154935080925060019150610655565b8360016000838152602001908152602001600020600201540361065457600091505b5b808061066090611119565b9150506105e6565b50801561067a57819450505050610682565b600094505050505b5090565b60016020528060005260406000206000915090508060000154908060010180546106af90611190565b80601f01602080910402602001604051908101604052809291908181526020018280546106db90611190565b80156107285780601f106106fd57610100808354040283529160200191610728565b820191906000526020600020905b81548152906001019060200180831161070b57829003601f168201915b50505050509080600201549080600301805461074390611190565b80601f016020809104026020016040519081016040528092919081815260200182805461076f90611190565b80156107bc5780601f10610791576101008083540402835291602001916107bc565b820191906000526020600020905b81548152906001019060200180831161079f57829003601f168201915b5050505050908060040154908060050180546107d790611190565b80601f016020809104026020016040519081016040528092919081815260200182805461080390611190565b80156108505780601f1061082557610100808354040283529160200191610850565b820191906000526020600020905b81548152906001019060200180831161083357829003601f168201915b5050505050905086565b60035481565b60008054906101000a900473ffffffffffffffffffffffffffffffffffffffff1673ffffffffffffffffffffffffffffffffffffffff163373ffffffffffffffffffffffffffffffffffffffff16146108b857600080fd5b60008060028111156108cd576108cc610c58565b5b600460009054906101000a900460ff1660028111156108ef576108ee610c58565b5b146108f957600080fd5b6003600081548092919061090c90611119565b91905055506040518060c0016040528060035481526020018681526020016000815260200185815260200184815260200183815250600160006003548152602001908152602001600020600082015181600001556020820151816001019081610975919061136d565b50604082015181600201556060820151816003019081610995919061136d565b506080820151816004015560a08201518160050190816109b5919061136d565b509050505050505050565b606060028060028111156109d7576109d6610c58565b5b600460009054906101000a900460ff1660028111156109f9576109f8610c58565b5b14610a0357600080fd5b600060035467ffffffffffffffff811115610a2157610a20610e24565b5b604051908082528060200260200182016040528015610a4f5781602001602082028036833780820191505090505b5090506000600190505b6003548111610ab757600160008281526020019081526020016000206002015482600183610a87919061143f565b81518110610a9857610a97611473565b5b6020026020010181815250508080610aaf90611119565b915050610a59565b50809250505090565b6000604051905090565b600080fd5b600080fd5b6000819050919050565b610ae781610ad4565b8114610af257600080fd5b50565b600081359050610b0481610ade565b92915050565b600060208284031215610b2057610b1f610aca565b5b6000610b2e84828501610af5565b91505092915050565b60038110610b4457600080fd5b50565b600081359050610b5681610b37565b92915050565b600060208284031215610b7257610b71610aca565b5b6000610b8084828501610b47565b91505092915050565b600073ffffffffffffffffffffffffffffffffffffffff82169050919050565b6000610bb482610b89565b9050919050565b610bc481610ba9565b8114610bcf57600080fd5b50565b600081359050610be181610bbb565b92915050565b600060208284031215610bfd57610bfc610aca565b5b6000610c0b84828501610bd2565b91505092915050565b60008115159050919050565b610c2981610c14565b82525050565b6000604082019050610c446000830185610c20565b610c516020830184610c20565b9392505050565b7f4e487b7100000000000000000000000000000000000000000000000000000000600052602160045260246000fd5b60038110610c9857610c97610c58565b5b50565b6000819050610ca982610c87565b919050565b6000610cb982610c9b565b9050919050565b610cc981610cae565b82525050565b6000602082019050610ce46000830184610cc0565b92915050565b610cf381610ad4565b82525050565b6000602082019050610d0e6000830184610cea565b92915050565b600081519050919050565b600082825260208201905092915050565b60005b83811015610d4e578082015181840152602081019050610d33565b60008484015250505050565b6000601f19601f8301169050919050565b6000610d7682610d14565b610d808185610d1f565b9350610d90818560208601610d30565b610d9981610d5a565b840191505092915050565b600060c082019050610db96000830189610cea565b8181036020830152610dcb8188610d6b565b9050610dda6040830187610cea565b8181036060830152610dec8186610d6b565b9050610dfb6080830185610cea565b81810360a0830152610e0d8184610d6b565b9050979650505050505050565b600080fd5b600080fd5b7f4e487b7100000000000000000000000000000000000000000000000000000000600052604160045260246000fd5b610e5c82610d5a565b810181811067ffffffffffffffff82111715610e7b57610e7a610e24565b5b80604052505050565b6000610e8e610ac0565b9050610e9a8282610e53565b919050565b600067ffffffffffffffff821115610eba57610eb9610e24565b5b610ec382610d5a565b9050602081019050919050565b82818337600083830152505050565b6000610ef2610eed84610e9f565b610e84565b905082815260208101848484011115610f0e57610f0d610e1f565b5b610f19848285610ed0565b509392505050565b600082601f830112610f3657610f35610e1a565b5b8135610f46848260208601610edf565b91505092915050565b60008060008060808587031215610f6957610f68610aca565b5b600085013567ffffffffffffffff811115610f8757610f86610acf565b5b610f9387828801610f21565b945050602085013567ffffffffffffffff811115610fb457610fb3610acf565b5b610fc087828801610f21565b9350506040610fd187828801610af5565b925050606085013567ffffffffffffffff811115610ff257610ff1610acf565b5b610ffe87828801610f21565b91505092959194509250565b600081519050919050565b600082825260208201905092915050565b6000819050602082019050919050565b61103f81610ad4565b82525050565b60006110518383611036565b60208301905092915050565b6000602082019050919050565b60006110758261100a565b61107f8185611015565b935061108a83611026565b8060005b838110156110bb5781516110a28882611045565b97506110ad8361105d565b92505060018101905061108e565b5085935050505092915050565b600060208201905081810360008301526110e2818461106a565b905092915050565b7f4e487b7100000000000000000000000000000000000000000000000000000000600052601160045260246000fd5b600061112482610ad4565b91507fffffffffffffffffffffffffffffffffffffffffffffffffffffffffffffffff8203611156576111556110ea565b5b600182019050919050565b7f4e487b7100000000000000000000000000000000000000000000000000000000600052602260045260246000fd5b600060028204905060018216806111a857607f821691505b6020821081036111bb576111ba611161565b5b50919050565b60008190508160005260206000209050919050565b60006020601f8301049050919050565b600082821b905092915050565b6000600883026112237fffffffffffffffffffffffffffffffffffffffffffffffffffffffffffffffff826111e6565b61122d86836111e6565b95508019841693508086168417925050509392505050565b6000819050919050565b600061126a61126561126084610ad4565b611245565b610ad4565b9050919050565b6000819050919050565b6112848361124f565b61129861129082611271565b8484546111f3565b825550505050565b600090565b6112ad6112a0565b6112b881848461127b565b505050565b5b818110156112dc576112d16000826112a5565b6001810190506112be565b5050565b601f821115611321576112f2816111c1565b6112fb846111d6565b8101602085101561130a578190505b61131e611316856111d6565b8301826112bd565b50505b505050565b600082821c905092915050565b600061134460001984600802611326565b1980831691505092915050565b600061135d8383611333565b9150826002028217905092915050565b61137682610d14565b67ffffffffffffffff81111561138f5761138e610e24565b5b6113998254611190565b6113a48282856112e0565b600060209050601f8311600181146113d757600084156113c5578287015190505b6113cf8582611351565b865550611437565b601f1984166113e5866111c1565b60005b8281101561140d578489015182556001820191506020850194506020810190506113e8565b8683101561142a5784890151611426601f891682611333565b8355505b6001600288020188555050505b505050505050565b600061144a82610ad4565b915061145583610ad4565b925082820390508181111561146d5761146c6110ea565b5b92915050565b7f4e487b7100000000000000000000000000000000000000000000000000000000600052603260045260246000fdfea26469706673582212209a993e3278565483524af626c513a5200a4d6881ceba6d2ddf64923b6718d19a64736f6c63430008130033",
  "immutableReferences": {},
  "source": "// SPDX-License-Identifier: MIT\npragma solidity >=0.5.0 <0.9.0;\n\ncontract Voting {\n    struct Contestant {\n        uint id;\n        string name;\n        uint voteCount;\n        string party;\n        uint age;\n        string qualification;\n    }\n\n    struct Voter {\n        bool hasVoted;\n        //uint vote;\n        bool isRegistered;\n    }\n\n    address admin;\n    mapping(uint => Contestant) public contestants;\n    // mapping(address => bool) public voters;\n    mapping(address => Voter) public voters;\n    uint public contestantsCount;\n    // uint public counter;\n    enum PHASE {\n        reg,\n        voting,\n        done\n    }\n    PHASE public state;\n\n    modifier onlyAdmin() {\n        require(msg.sender == admin);\n        _;\n    }\n\n    modifier validState(PHASE x) {\n        require(state == x);\n        _;\n    }\n\n    constructor() {\n        admin = msg.sender;\n        state = PHASE.reg;\n        // counter = 0;\n    }\n\n    function changeState(PHASE x) public onlyAdmin {\n        require(x > state);\n        state = x;\n    }\n\n    function addContestant(\n        string memory _name,\n        string memory _party,\n        uint _age,\n        string memory _qualification\n    ) public onlyAdmin validState(PHASE.reg) {\n        contestantsCount++;\n        contestants[contestantsCount] = Contestant(\n            contestantsCount,\n            _name,\n            0,\n            _party,\n            _age,\n            _qualification\n        );\n    }\n\n    function voterRegisteration(\n        address user\n    ) public onlyAdmin validState(PHASE.reg) {\n        voters[user].isRegistered = true;\n    }\n\n    function vote(uint _contestantId) public validState(PHASE.voting) {\n        require(voters[msg.sender].isRegistered);\n        require(!voters[msg.sender].hasVoted);\n        require(_contestantId > 0 && _contestantId <= contestantsCount);\n        contestants[_contestantId].voteCount++;\n        voters[msg.sender].hasVoted = true;\n        //voters[msg.sender].vote = _contestantId;\n    }\n    function winner() public view validState(PHASE.done) returns (uint) {\n        uint maxVotes = 0;\n        uint currentWinnerId = 0;\n        bool hasWinner = false;\n        for (uint i = 1; i <= contestantsCount; i++) {\n            if (contestants[i].voteCount > maxVotes) {\n                maxVotes = contestants[i].voteCount;\n                currentWinnerId = i;\n                hasWinner = true;\n            } else if (contestants[i].voteCount == maxVotes) {\n                hasWinner = false;\n            }\n        }\n        if (hasWinner) {\n            return currentWinnerId;\n        } else {\n            return 0;\n        }\n    }\n    function getVoteCounts()\n        public\n        view\n        validState(PHASE.done)\n        returns (uint[] memory)\n    {\n        uint[] memory voteCounts = new uint[](contestantsCount);\n        for (uint i = 1; i <= contestantsCount; i++) {\n            voteCounts[i - 1] = contestants[i].voteCount;\n        }\n        return voteCounts;\n    }\n}\n",
  "sourcePath": "/home/thaufi/Desktop/Project/truffle/contracts/Voting.sol",
  "compiler": {
    "name": "solc",
    "version": "0.8.19+commit.7dd6d404.Emscripten.clang"
  },
  "schemaVersion": "3.4.16",
  "updatedAt": "2024-03-20T19:32:54.443Z",
  "networkType": "ethereum",
  "devdoc": {
    "kind": "dev",
    "methods": {},
    "version": 1
  },
  "userdoc": {
    "kind": "user",
    "methods": {},
    "version": 1
  }
}